:100000000C94E2020C940A030C940A030C940A0365
:100010000C940A030C940A030C940A030C940A032C
:100020000C940A030C940A030C940A030C940A031C
:100030000C940A030C940A030C940A030C940A030C
:100040000C94BE0D0C940A030C948C0D0C94660D4C
:100050000C940A030C940A030C940A030C940A03EC
:100060000C94080E0C940A0300000000003E5B4F45
:100070005B3E3E6B4F6B3E1C3E7C3E1C183C7E3C08
:10008000181C577D571C1C5E7F5E1C00183C180016
:10009000FFE7C3E7FF0018241800FFE7DBE7FF30A6
:1000A000483A060E2629792926407F050507407F14
:1000B00005253F5A3CE73C5A7F3E1C1C08081C1C87
:1000C0003E7F14227F22145F5F005F5F06097F017D
:1000D0007F006689956A606060606094A2FFA29468
:1000E00008047E040810207E201008082A1C080836
:1000F0001C2A08081E101010100C1E0C1E0C303884
:100100003E3830060E3E0E06000000000000005F84
:1001100000000007000700147F147F14242A7F2AA0
:100120001223130864623649562050000807030062
:10013000001C2241000041221C002A1C7F1C2A08AE
:10014000083E080800807030000808080808000011
:1001500060600020100804023E5149453E00427F85
:10016000400072494949462141494D331814127FD4
:100170001027454545393C4A494931412111090774
:100180003649494936464949291E000014000000F5
:1001900040340000000814224114141414140041C7
:1001A00022140802015909063E415D594E7C121184
:1001B000127C7F494949363E414141227F414141BC
:1001C0003E7F494949417F090909013E4141517337
:1001D0007F0808087F00417F41002040413F017FA8
:1001E000081422417F404040407F021C027F7F0470
:1001F00008107F3E4141413E7F090909063E4151B9
:10020000215E7F09192946264949493203017F01A8
:10021000033F4040403F1F2040201F3F4038403FA9
:10022000631408146303047804036159494D4300BF
:100230007F4141410204081020004141417F0402F6
:10024000010204404040404000030708002054548D
:1002500078407F284444383844444428384444286B
:100260007F385454541800087E090218A4A49C78BE
:100270007F0804047800447D40002040403D007F1A
:100280001028440000417F40007C047804787C08FA
:100290000404783844444438FC18242418182424CE
:1002A00018FC7C08040408485454542404043F44B3
:1002B000243C4040207C1C2040201C3C4030403CE2
:1002C00044281028444C9090907C4464544C440042
:1002D00008364100000077000000413608000201A6
:1002E0000204023C2623263C1EA1A161123A404092
:1002F000207A38545455592155557941225454780F
:1003000042215554784020545579400C1E527212A7
:100310003955555559395454545939555454580030
:1003200000457C410002457D420001457C407D1234
:1003300011127DF0282528F07C5455450020545496
:100340007C547C0A097F4932494949323A44444441
:100350003A324A4848303A4141217A3A424020787C
:10036000009DA0A07D3D4242423D3D4040403D3C7D
:1003700024FF2424487E4943662B2FFC2F2BFF09A2
:1003800029F620C0887E0903205454794100004496
:100390007D413048484A32384040227A007A0A0A81
:1003A000727D0D19317D2629292F282629292926F4
:1003B00030484D4020380808080808080808382F39
:1003C00010C8ACBA2F102834FA00007B00000814C3
:1003D0002A142222142A14085500550055AA55AA99
:1003E00055AAFF55FF55FF000000FF00101010FF39
:1003F00000141414FF001010FF00FF1010F010F094
:10040000141414FC001414F700FF0000FF00FF1484
:1004100014F404FC141417101F10101F101F1414D0
:10042000141F00101010F0000000001F101010101A
:100430001F10101010F010000000FF10101010100E
:1004400010101010FF10000000FF140000FF00FF4C
:1004500000001F10170000FC04F4141417101714E8
:1004600014F404F40000FF00F7141414141414140A
:10047000F700F7141414171410101F101F1414147D
:10048000F4141010F010F000001F101F0000001FE7
:1004900014000000FC140000F010F01010FF10FF1A
:1004A000141414FF141010101F00000000F010FFAF
:1004B000FFFFFFFFF0F0F0F0F0FFFFFF0000000093
:1004C00000FFFF0F0F0F0F0F3844443844FC4A4A17
:1004D0004A347E02020606027E027E0263554941CC
:1004E000633844443C04407E201E2006027E020203
:1004F00099A5E7A5991C2A492A1C4C7201724C3017
:100500004A4D4D303048784830BC625A463D3E49ED
:100510004949007E0101017E2A2A2A2A2A44445F91
:10052000444440514A444040444A51400000FF0185
:1005300003E080FF000008086B6B08361236243693
:10054000060F090F060000181800000010100030F8
:1005500040FF0101001F01011E00191D1712003C80
:100560003C3C3C000000000000000000230026008E
:10057000290000000000240027002A0000000000DD
:10058000250028002B0004040404040404040202CF
:100590000202020203030303030301020408102002
:1005A000408001020408102001020408102000000D
:1005B0000008000201000003040700000000000022
:1005C0000000270F11241FBECFEFD8E0DEBFCDBF44
:1005D00011E0A0E0B1E0EAE1F5E202C005900D9281
:1005E000AC3BB107D9F723E0ACEBB1E001C01D9201
:1005F000A735B207E1F712E0C2EED2E004C02197BE
:10060000FE010E948012C13ED107C9F70E94840FEB
:100610000C948B120C9400002091810281E0213215
:1006200008F044C080915D028111FCCF809180026E
:1006300092E090935D0291E090935C029FEF909323
:100640005B0210925A0220935902A0E6B2E0E9E35D
:10065000F2E090E0291331C01092380290913802F4
:10066000880F892B8093380280913702813049F5B9
:1006700010923702809138028093BB008091BC00B9
:1006800083FDF8CF85EC8093BC0080915D028230C1
:10069000E1F380915B028F3FB1F080915B02803289
:1006A000A1F080915B02803391F084E010925F02B0
:1006B0001092810210925E0208953D9131939F5FE6
:1006C000C9CF85EEE0CF80E0F1CF82E0EFCF83E0CD
:1006D000EDCFCF93DF9390E0FC01E656FA4F2491E3
:1006E0008A579A4FFC0184918823C1F090E0880FCB
:1006F000991FFC01EE58FA4FC591D491FC01E458C2
:10070000FA4FA591B4919FB7F8943881822F8095C4
:1007100083238883EC91E22BEC939FBFDF91CF91F1
:10072000089508950895AF92BF92CF92DF92EF920D
:10073000FF920F931F93CF93DF936C017B018B018B
:10074000040F151FEB015E01AE18BF08C017D107DB
:1007500059F06991D601ED91FC910190F081E02D65
:10076000C6010995892B79F7C501DF91CF911F91BA
:100770000F91FF90EF90DF90CF90BF90AF900895D2
:10078000FC01538D448D252F30E0842F90E0821B97
:10079000930B541710F0CF96089501970895FC011C
:1007A000918D828D981761F0A28DAE0FBF2FB11D74
:1007B0005D968C91928D9F5F9F73928F90E00895CC
:1007C0008FEF9FEF0895FC01918D828D981731F086
:1007D000828DE80FF11D858D90E008958FEF9FEFDA
:1007E0000895FC01918D228D892F90E0805C9F4FB0
:1007F000821B91098F739927089582E892E00E94E5
:10080000F10321E0892B09F420E0822F089580E094
:1008100090E0892B29F00E94FD0381110C940000C7
:100820000895FC01A48DA80FB92FB11DA35ABF4F85
:100830002C91848D90E001968F739927848FA689DF
:10084000B7892C93A089B1898C91837080648C9333
:10085000938D848D981306C00288F389E02D8081E2
:100860008F7D80830895EF92FF920F931F93CF9314
:10087000DF93EC0181E0888F9B8D8C8D98131AC0DB
:10088000E889F989808185FF15C09FB7F894EE89C2
:10089000FF896083E889F98980818370806480831F
:1008A0009FBF81E090E0DF91CF911F910F91FF906A
:1008B000EF900895F62E0B8D10E00F5F1F4F0F7312
:1008C0001127E02E8C8D8E110CC00FB607FCFACFCD
:1008D000E889F989808185FFF5CFCE010E94110456
:1008E000F1CFEB8DEC0FFD2FF11DE35AFF4FF0829E
:1008F0009FB7F8940B8FEA89FB8980818062CFCF04
:10090000CF93DF93EC01888D8823B9F0AA89BB8946
:10091000E889F9898C9185FD03C0808186FD0DC031
:100920000FB607FCF7CF8C9185FFF2CF808185FF52
:10093000EDCFCE010E941104E9CFDF91CF91089550
:10094000833081F028F4813099F08230A9F0089545
:100950008730A9F08830C9F08430B1F480918000EC
:100960008F7D03C0809180008F77809380000895F1
:1009700084B58F7784BD089584B58F7DFBCF80913A
:10098000B0008F778093B00008958091B0008F7D84
:10099000F9CFCF93DF93282F30E0F901E255FA4FDA
:1009A0008491F901E656FA4FD491F901EA57FA4FCA
:1009B000C491CC2389F081110E94A004EC2FF0E0B7
:1009C000EE0FFF1FE458FA4FA591B4918FB7F8943A
:1009D000EC91DE2BDC938FBFDF91CF910895CF9305
:1009E000DF93282F30E0F901E255FA4F8491F901A5
:1009F000E656FA4FD491F901EA57FA4FC491CC2345
:100A0000A1F081110E94A004EC2FF0E0EE0FFF1F77
:100A1000E859FA4FA591B491EC91ED2381E090E073
:100A200009F480E0DF91CF91089580E090E0FACF63
:100A30003FB7F8948091200290912102A091220268
:100A4000B091230226B5A89B05C02F3F19F001964F
:100A5000A11DB11D3FBFBA2FA92F982F8827BC0118
:100A6000CD01620F711D811D911D42E0660F771F40
:100A7000881F991F4A95D1F708958F929F92AF9240
:100A8000BF92CF92DF92EF92FF920E9418054B0126
:100A90005C0188ECC82ED12CE12CF12C0E941805A9
:100AA000681979098A099B09683E73408105910597
:100AB000A8F321E0C21AD108E108F10888EE880EF7
:100AC00083E0981EA11CB11CC114D104E104F104FF
:100AD00029F7FF90EF90DF90CF90BF90AF909F905D
:100AE0008F900895FC014830510508F082C06830AD
:100AF000710508F07EC08689823051F1833099F10A
:100B0000813031F487E090E0841B950BAB01BC0190
:100B10002330310579F5440F551FE40FF51F81E0AF
:100B200090E09C01062E02C0220F331F0A94E2F7C8
:100B3000438D548D242B352B685F7F4F02C0880F67
:100B4000991F6A95E2F780959095822393234FC071
:100B500087E090E0DC01A61BB70BBD01DC01A41B04
:100B6000B50BAD01D5CF87E090E0861B970BBA019E
:100B7000AC01CECF21303105E9F4440F551FE40F0D
:100B8000F51FCB010896A90102C0440F551F8A9595
:100B9000E2F7CA01438D548D842B952B02C0220F9E
:100BA000331F6A95E2F72095309528233923348F37
:100BB000238F089522303105E9F4440F551FE40FC7
:100BC000F51FCB01089621E030E0D90102C0AA0F41
:100BD000BB1F8A95E2F7CD0102C0220F331F6A9531
:100BE000E2F7822B932B238D348D822B932B948FC2
:100BF000838F0895232BE9F7440F551FE40FF51F4A
:100C0000CB01089621E030E0A90102C0440F551F36
:100C10008A95E2F7CA0102C0220F331F6A95E2F7F4
:100C2000822B932B80959095238D348D8ECF0895B4
:100C3000FC016370668B84819581268137816130E8
:100C400039F0633029F091878087338722870895B0
:100C5000318720879387828708952F923F924F9202
:100C60005F926F927F928F929F92AF92BF92CF923C
:100C7000DF92EF92FF920F931F93CF93DF93CDB745
:100C8000DEB76A970FB6F894DEBF0FBECDBF9A8F5E
:100C9000898F7A8369834A01D22E18870F8337019F
:100CA000BC2CDC0159962D913C915A9721153105A8
:100CB00009F015C118968D919C91199768177907BD
:100CC0000CF0D7C11A968D919C91481759070CF0DA
:100CD000D0C14C2C512CB6E0CB9E600D711D11245F
:100CE0007C876B87161617060CF0C3C1EA2DF0E05F
:100CF000FA87E98793E0EE0FFF1F9A95E1F7F88BEB
:100D0000EF87CF01840F951F181619060CF0B1C19B
:100D1000A98DBA8D58968C91811104C0BFEABD157A
:100D200008F4D394A98DBA8DED91FC9111970284AA
:100D3000F385E02DCD010995B5E0DB9EC0011124BE
:100D4000E981FA81FC83EB83312C212C9C01285909
:100D50003F4F388F2F8B4A2D50E05E8B4D8BEF89A4
:100D6000F88DE20DF31D44919E828D82D12CC12C11
:100D700069817A81620D731D7A8B698B842F90E073
:100D80009C8B8B8BE98DFA8DA081B18140FF82C055
:100D9000F1E0BF126FC0AF126DC01C96ED91FC91D7
:100DA0002F813885A4014C0D5D1D69897A89898D53
:100DB0009A8D0995EB89FC89F595E7954E2F5FEFA4
:100DC000C51AD50A6D817E818D899E89680F791F2C
:100DD0007E836D8398E0C916D10481F6AFEF2A1A9D
:100DE0003A0AEB81FC81E40DF51DFC83EB83F5E011
:100DF0002F16310409F0B3CF2F813885261537051A
:100E0000B9F0A98DBA8DED91FC91B1E0BB1257C03C
:100E1000AB1255C069817A816B5F7F4F0088F18981
:100E2000E02D830128E030E0A401898D9A8D099599
:100E3000A98DBA8DED91FC9111970688F789E02D67
:100E4000CD016A960FB6F894DEBF0FBECDBFDF911D
:100E5000CF911F910F91FF90EF90DF90CF90BF90B7
:100E6000AF909F908F907F906F905F904F903F904A
:100E70002F9009941E96ED91FC91EF80F8840985DE
:100E80001A8592014D815E816B817C81898D9A8D5D
:100E9000099590CF2F8138852615370509F48ACF1B
:100EA00031E0B31207C0A31205C01C96ED91FC916E
:100EB000930178CF1E96ED91FC917301E0CF6B8585
:100EC0007C85641975090684F785E02D73010F850B
:100ED00018899201A401898D9A8D0995A9CFF901EC
:100EE00034969491329745915491D91AB7E0DB9E8C
:100EF000400D511D1124F901259134913C8B2B8B10
:100F0000FA0125903490FA0132967490319634911A
:100F1000398B329664903196449041E04C1518F02C
:100F20004A1508F07FC0662D062C000C770B7C83D9
:100F30006B83842D042C000C990B9E838D83A98DCB
:100F4000BA8DED91FC9111970284F385E02DCD01CE
:100F50000995512CD12CC12CEA2DF0E0FA87E987B4
:100F60002B2D30E03C872B87A401440D511D47FCFD
:100F70005A95588F4F8B69817A81660D711D67FC78
:100F80007A957E876D877989C71608F051CF2C2D09
:100F900030E04D815E81420F531FA985BA854A9F7B
:100FA000C0014B9F900D5A9F900D1124FC01E80D3C
:100FB000F91DF88BEF87852D612C4F89588D420FD5
:100FC000531F5E8B4D8B671408F050C0442443942C
:100FD000480E877041F4C1010196EB89FC89E20D4E
:100FE000F31DD4901C01D7FE19C0A98DBA8DED91C7
:100FF000FC91662D70E0B1E0BB1219C0AB1217C0B6
:101000002D853E85620F731F0484F585E02D2F81A9
:1010100038854D895E89898D9A8D0995DD0C63949B
:10102000842DD1CF1E821D821C821B8288CF4B81D2
:101030005C81640F751FAB85BC856A9FC0016B9F87
:10104000900D7A9F900D112469817A81680F791F24
:101050000684F785E02DEF80F88409851A859D01C7
:101060004F855889898D9A8D0995D8CF570CC3948F
:101070008ACF6A960FB6F894DEBF0FBECDBFDF9160
:10108000CF911F910F91FF90EF90DF90CF90BF9085
:10109000AF909F908F907F906F905F904F903F9018
:1010A0002F9008958F929F92AF92CF92EF92FF92DE
:1010B0000F931F93CF93DF93EC01262F898D9A8D89
:1010C000009709F051C06A30D1F41D861C868D89C5
:1010D00048E0849F900111248E859F85820F931F85
:1010E0009F878E8781E090E0DF91CF911F910F91D4
:1010F000FF90EF90CF90AF909F908F9008956D30BC
:1011000089F3CC88AD888F898823C1F08C859D8533
:1011100036E0C39E800D911D1124488559854817DE
:10112000590764F44E855F851D861C8638E0A39EB2
:10113000C0011124840F951F9F878E87EA88FB8842
:10114000088919894E855F856C857D85CE010E9451
:101150002D062C898C859D8546E0249F800D911D50
:1011600011249D878C87BECF6A3069F41D861C864A
:10117000FC013696E4912D898E859F85E29F800D36
:10118000911D1124ADCF6D3009F4ACCFFC01349624
:101190003491631708F4A6CF3196E491E61708F46A
:1011A000A1CFFC01329685909490462F431B342F9B
:1011B00047E0349F800C911C1124F4013296349145
:1011C0003196E4913323A9F1EE2399F1CC88F4010F
:1011D0003596E491AD884F89442301F10E2E000C21
:1011E000FF0BE30FF11DCE9EA001CF9E500D1124E9
:1011F0006C857D85460F571F68857985641775074F
:101200006CF44E855F851D861C86FC013696E49144
:10121000AE9E400D511D11245F874E87EA88FB88E2
:10122000088919894E855F856C857D85CE010E9470
:101230002D06F4013496E4912C898C859D85E29FDE
:10124000800D911D11248DCF6F927F928F929F926E
:10125000AF92BF92CF92DF92EF92FF920F931F93C4
:10126000CF93DF93EC016B015A0139014801E8810A
:10127000F9810284F385E02D0995E881F9810288DE
:10128000F389E02D87019301A501B601CE010995EF
:10129000A501480D591D41505109E881F981028885
:1012A000F389E02D9301B601CE010995E881F9811A
:1012B0000088F189E02D9401A501B601CE010995C0
:1012C000C60CD71CB60161507109E881F98100880C
:1012D000F189E02D9401A501CE010995E881F981FC
:1012E0000688F789E02DCE01DF91CF911F910F91F4
:1012F000FF90EF90DF90CF90BF90AF909F908F9036
:101300007F906F9009946F927F928F929F92AF928D
:10131000BF92CF92DF92EF92FF920F931F93CF93E2
:10132000DF935C01EB016A01490138018701DC01AF
:10133000ED91FC916217730719F5641675062CF090
:10134000962D872D3A01C92ED82E960126193709D8
:101350002F5F3F4F048CF58DE02DA301BE01C50129
:101360000995DF91CF911F910F91FF90EF90DF9042
:10137000CF90BF90AF909F908F907F906F90089587
:101380004615570591F42617370724F0892D4B0190
:10139000C22FD82F9E01281939092F5F3F4F068C85
:1013A000F78DE02DA601B401DACF0284F385E02D9C
:1013B0000995D501ED91FC910488F589E02D830113
:1013C0009401A601BE01C5010995D501ED91FC91DD
:1013D0000688F789E02DC501DF91CF911F910F910C
:1013E000FF90EF90DF90CF90BF90AF909F908F9045
:1013F0007F906F900994EF92FF920F931F93DC01FF
:101400001A960D911C911B9718962D913C91199746
:10141000ED91FC9100A0F1A1E02D7B0150E040E0B6
:1014200070E060E009951F910F91FF90EF90089593
:101430004F925F926F927F928F929F92AF92BF92E4
:10144000CF92DF92EF92FF920F931F93CF93DF9390
:101450006C012B015A0139014801DC01ED91FC912D
:101460000284F385E02D0995E201640C751CD60118
:10147000ED91FC91C615D7055CF40088F189E02D4B
:1014800087019401A501BE01C60109952196EFCF00
:101490000688F789E02DC601DF91CF911F910F914A
:1014A000FF90EF90DF90CF90BF90AF909F908F9084
:1014B0007F906F905F904F9009948F929F92AF9220
:1014C000BF92CF92DF92EF92FF920F931F93CF9331
:1014D000DF93EC015B014A016901E881F981028433
:1014E000F385E02D099595012C0D3D1D2150310905
:1014F000E881F9810488F589E02D78018401A4014F
:10150000B501CE010995E881F9810688F789E02DBA
:10151000CE01DF91CF911F910F91FF90EF90DF905F
:10152000CF90BF90AF909F908F9009948F929F9291
:10153000AF92BF92CF92DF92EF92FF920F931F93E1
:10154000CF93DF93EC015B014A0169017801E881E7
:10155000F9810284F385E02D0995C80CD91C860118
:1015600001501109E881F9810488F589E02D950180
:10157000A401B501CE010995E881F9810688F789B2
:10158000E02DCE01DF91CF911F910F91FF90EF9051
:10159000DF90CF90BF90AF909F908F900994089567
:1015A000EF92FF920F931F93DC01ED91FC9100A04D
:1015B000F1A1E02D09951F910F91FF90EF900895F3
:1015C0000F931F93DC01ED91FC91068CF78DE02DBC
:1015D00009951F910F9108950F931F93DC01ED91D1
:1015E000FC91048CF58DE02D09951F910F910895C4
:1015F000DC01ED91FC910084F185E02D09942F929E
:101600003F924F925F926F927F928F929F92AF9292
:10161000BF92CF92DF92EF92FF920F931F93CF93DF
:10162000DF9300D000D000D0CDB7DEB73C016A0117
:101630003E832D83FC82EB825801A41AB50AB7FEC3
:1016400003C0B194A194B1088D809E80861A970A38
:1016500097FE03C09194819491088A149B045CF0D6
:10166000902F812F0D811E819D838E839C2D8D2D2A
:101670006B01692F782F0C151D055CF09D818E8103
:101680007E836D83692F782F902F812F8601C92E3D
:10169000D82E1601201A310A2B012D813E81421AC3
:1016A000530A57FE03C0519441945108710137FE0B
:1016B00003C03FEFE31AF30AF594E7948D819E810E
:1016C000861797075CF5A1E0B0E0BA83A983C0163E
:1016D000D1064CF1D301ED91FC910484F585E02D08
:1016E0002B813C81A8016D817E818A149B041CF0B2
:1016F0004D815E81B801C3010995E418F508F7FE34
:101700000AC02D813E8189819A81280F391F3E832D
:101710002D83E20CF31C0F5F1F4FD9CF2FEF3FEF4C
:101720003A832983D4CF26960FB6F894DEBF0FBE36
:10173000CDBFDF91CF911F910F91FF90EF90DF9080
:10174000CF90BF90AF909F908F907F906F905F9061
:101750004F903F902F900895089585ED8093BC00A1
:101760008091BC0084FDFCCF10925D020895209111
:10177000FC01260F3327331F21323105ECF4209171
:101780005D02FC0190E080E0243069F082E0089581
:10179000A091FC012191AC0144525E4FA40FB52FE2
:1017A000B11D2C930196861798F38091FC01680F68
:1017B0006093FC0180E0089581E00895E0912902A2
:1017C00080912802E81730F4F0E0E454FE4F808165
:1017D00090E008958FEF9FEF0895909129028091F6
:1017E00028022FEF3FEF981748F4E92FF0E0E45478
:1017F000FE4F208130E09F5F90932902C901089538
:101800008091280290912902891B990B0895CF920B
:10181000DF92EF92FF920F931F93CF93DF937C01A0
:10182000CB018A0120915E02222389F0EB016B013A
:10183000C40ED51ECC15DD0569F06991D701ED9177
:10184000FC910190F081E02DC7010995F3CF642F41
:101850000E94B70BC801DF91CF911F910F91FF90AC
:10186000EF90DF90CF900895CF93DF931F92CDB785
:10187000DEB7698320915E022223F9F02091810274
:10188000203258F021E030E0FC013383228390E0E5
:1018900080E00F90DF91CF91089580915F02E82F53
:1018A000F0E0E05AFD4F998190838F5F80935F0253
:1018B0008093810281E090E0ECCF61E0CE0101965F
:1018C0000E94B70BF7CFCF93DF938091560391E03F
:1018D00090935E028093800210925F0210928102C8
:1018E00060E08FE193E00E94340CCBE2D3E06B8D9B
:1018F0008FE193E00E94340C6C8D8FE193E00E94A5
:10190000340C229683E0CB33D80789F7DF91CF914F
:101910000C940C0390E080E00895CF92DF92EF9258
:10192000FF920F931F93CF93DF9300E011E0D0E07D
:10193000C0E0CC24C394D12C50E040E07A018FEF7A
:10194000E81AF80AC6010E2C02C0880F991F0A94E3
:10195000E2F7F801248135818223932323E030E0EC
:10196000892B11F430E020E0BE018BE293E00E946D
:101970007205A7014830510509F721960E5F1F4FE8
:10198000C830D105C9F6DF91CF911F910F91FF901B
:10199000EF90DF90CF900895CF93DF9320911801BF
:1019A000E0913202F0E0EE0FFF1FE050FF4F809118
:1019B0002E02A0912F02B091300293E0899FA00DDA
:1019C000B11D112450E040E0619171918D91EF01C2
:1019D0002297082E000C990B022E02C0880F991F27
:1019E0000A94E2F7809590958623972399838883BC
:1019F0004F5F5F4F4330510539F7DF91CF91089525
:101A0000CF93DF9320911801E0913202F0E0EE0FC6
:101A1000FF1FE050FF4F80912E02A0912F02B09146
:101A2000300293E0899FA00DB11D112450E040E0E9
:101A3000619171918D91EF012297082E000C990B05
:101A4000022E02C0880F991F0A94E2F7862B972B6B
:101A5000998388834F5F5F4F4330510549F7DF918A
:101A6000CF910895CF93DF9340911801E091320216
:101A7000F0E0EE0FFF1FE050FF4F80912E02A0918B
:101A80002F02B091300293E0899FA00DB11D112467
:101A900070E060E080E0C191D1912D91022E000CA8
:101AA000330B042E02C0220F331F0A94E2F72C23BB
:101AB0003D23232B09F081E06F5F7F4F6330710579
:101AC00051F7DF91CF9108950E9486121F920F92D5
:101AD0000FB60F9211242F933F934F935F936F9301
:101AE0007F938F939F93AF93BF93EF93FF9382E87E
:101AF00092E00E941104FF91EF91BF91AF919F91ED
:101B00008F917F916F915F914F913F912F910F90A6
:101B10000FBE0F901F9018951F920F920FB60F9245
:101B200011242F938F939F93EF93FF93E091920251
:101B3000F09193028081E0919802F091990282FDE8
:101B40001BC0908180919B028F5F8F7320919C02BC
:101B5000821741F0E0919B02F0E0EE57FD4F958F28
:101B600080939B02FF91EF919F918F912F910F9006
:101B70000FBE0F901F9018958081F4CF1F920F9287
:101B80000FB60F9211242F933F938F939F93AF9390
:101B9000BF9380912A0290912B02A0912C02B091C8
:101BA0002D0230911F0223E0230F2D3758F50196A7
:101BB000A11DB11D20931F0280932A0290932B0236
:101BC000A0932C02B0932D028091200290912102CB
:101BD000A0912202B09123020196A11DB11D809314
:101BE000200290932102A0932202B0932302BF917E
:101BF000AF919F918F913F912F910F900FBE0F90BA
:101C00001F90189526E8230F0296A11DB11DD2CF73
:101C10001F920F920FB60F9211242F933F934F9361
:101C20005F936F937F938F939F93AF93BF93EF9344
:101C3000FF938091B900887F803609F44AC0F0F59F
:101C4000883209F4A7C018F5803109F49BC0B8F4B4
:101C5000882309F4F9C0883009F494C0FF91EF910A
:101C6000BF91AF919F918F917F916F915F914F91B4
:101C70003F912F910F900FBE0F901F9018958831B4
:101C800009F488C0803251F780935B0214C080341D
:101C900009F49DC040F48033B9F38833F9F680939A
:101CA0005B0285ECB0C0803509F485C0883509F445
:101CB00096C0883499F60E94AD0BD0CF883909F4CC
:101CC0008CC038F5883729F050F4883611F0803709
:101CD00029F683E080935D0210921E0257C0883877
:101CE00009F47BC0803919F0803809F0B7CF8091B2
:101CF0001E02803208F071C0E0911E0281E08E0F5A
:101D000080931E028091BB00F0E0E250FE4F808382
:101D10003DC0803B39F0E0F4803A09F479C0883A5C
:101D200009F09CCF84E080935D021092FD01109237
:101D3000FC01E0912602F091270209958091FC01B7
:101D400081110FC081E08093FC011092DC0109C079
:101D5000803C09F4A6CF883C09F4A3CF883B09F066
:101D60007DCFE091FD0181E08E0F8093FD01F0E0D9
:101D7000E452FE4F80818093BB009091FD018091E1
:101D8000FC0129C0809138028093BB0085EC8093D0
:101D9000BC0064CF90915A0280915902981758F56F
:101DA000E0915A0281E08E0F80935A02F0E0E75CE6
:101DB000FD4F8081E9CFE0915A0281E08E0F809340
:101DC0005A028091BB00F0E0E75CFD4F8083909168
:101DD0005A02809159029817C8F285E8D8CFE0914D
:101DE0005A0281E08E0F80935A028091BB00F0E08E
:101DF000E75CFD4F808380915C0281115CCF81E0C4
:101E00008093370284EA8093BC0010925D0226CF53
:101E100085EC8093BC0010925D0280911E0280329E
:101E200030F4E0911E02F0E0E250FE4F108260912B
:101E30001E0270E0E0912402F09125028EEF91E005
:101E4000099510921E020ACF10925B0234CFE2E88D
:101E5000F2E01382128288EE93E0A0E0B0E0848387
:101E60009583A683B78329E531E03183208325EC70
:101E700030E03587248724EC30E03787268720EC54
:101E800030E0318B208B21EC30E0338B228B22EC45
:101E900030E0358B248B26EC30E0378B268B118E8F
:101EA000128E138E148EEFE1F3E01382128284837C
:101EB0009583A683B7838BE691E091838083EBE2E1
:101EC000F3E01382128288E090E095838483978305
:101ED00086839187808793878287168A15861486E2
:101EE0001786168681E0858B848B2FEF3FEF338B2F
:101EF000228B318B208B878B108E128E118E8DE76B
:101F000091E0918380830895789484B5826084BD44
:101F100084B5816084BD85B5826085BD85B58160ED
:101F200085BD80916E00816080936E00109281006B
:101F30008091810082608093810080918100816026
:101F400080938100809180008160809380008091E7
:101F5000B10084608093B1008091B0008160809373
:101F6000B00080917A00846080937A0080917A003A
:101F7000826080937A0080917A00816080937A00F9
:101F800080917A00806880937A001092C100E0917D
:101F90009202F091930282E08083E0918E02F091B0
:101FA0008F021082E0919002F09191028FEC808379
:101FB00010929A02E0919602F091970286E0808357
:101FC000E0919402F0919502808180618083E0919C
:101FD0009402F0919502808188608083E091940260
:101FE000F0919502808180688083E0919402F09165
:101FF000950280818F7D808343E150E065EA71E046
:1020000082E892E00E94930342E050E069EB71E0C5
:1020100082E892E00E94930384E00E94690382E0D8
:102020000E94690383E00E94690380E7809356035E
:10203000109229021092280210925F0210928102DF
:1020400010925D02C1E0C0935C021092370282E1FF
:102050000E94C90483E10E94C9048091B9008E7F67
:102060008093B9008091B9008D7F8093B90088E496
:102070008093B80085E48093BC0081E993E090935D
:1020800027028093260282E993E0909325028093B1
:10209000240280915603C0935E02809380021092C6
:1020A0005F021092810261E28FE193E00E94340CA2
:1020B0000E940C0380915603C0935E0280938002BD
:1020C00010925F021092810261E88FE193E00E941A
:1020D000340C0E940C0380915603C0935E028093DF
:1020E000800210925F02109281026FEE8FE193E006
:1020F0000E94340C0E940C030E94630CE091310298
:10210000F0E0EE0FFF1FE35BFE4F80819181909323
:10211000300280932F0280E480937C0080917A00CB
:10212000806480937A0080917A0086FDFCCF809154
:10213000780060917900762F682F072E000C880BAD
:10214000990B611571058105910511F00E9414121A
:1021500044E0C42ED12CE12CF12C56E0852E912C9C
:10216000A12CB12CC0E0D0E02FB7F89480912A02C6
:1021700090912B02A0912C02B0912D022FBF409183
:1021800033025091340260913502709136028C0115
:102190009D01041B150B260B370BB901A801483E06
:1021A00053406105710508F46AC08093330290932F
:1021B0003402A0933502B09336021091320281E0CE
:1021C000810F809332020E94320D811103C00E9460
:1021D000000D3FC0109332020E94000D1092320297
:1021E0000E94C511A70196010E941D126093310241
:1021F000E62FF0E0EE0FFF1FE35BFE4F8081918141
:102200009093300280932F020E94C511A501940182
:102210000E941D126F5F7F4F8F4F9F4F6093180179
:10222000E4E0F1E082E090E0219131912E7F317085
:102230002E3F3140F9F4880F991FFC01E050FF4F09
:10224000DF019E918E9191838083FD01A050B1406A
:10225000B9F70E948D0C0E94CC0C0E94630C209751
:1022600009F482CF0E94FD03882309F47DCF0E94E8
:1022700000007ACF01968A309105B1F6EACF84E06A
:102280000E94EF04892B81F41091180181E0810FE5
:10229000809318010E943D050E94320D882309F4A5
:1022A00096CF1093180193CF82E00E94EF04892B00
:1022B00021F4109118018FEFEACF83E00E94EF0420
:1022C000892B59F680912E028F5F843078F48093A9
:1022D0002E020E943D050E94320D882309F477CF1B
:1022E00080912E02815080932E0271CF10922E0287
:1022F000F0CF8F929F92AF92BF92CF92DF92EF92E8
:10230000FF92CF93DF93EC01688179818A819B8171
:10231000611571058105910521F464E279ED8BE584
:1023200097E02DE133EF41E050E00E941D1249019A
:102330005A019B01AC01A7EAB1E40E943C126B0177
:102340007C01ACEEB4EFA50194010E944A12C60EC6
:10235000D71EE81EF91EF7FE06C081E0C81AD10894
:10236000E10880E8F80AC882D982EA82FB82C701C4
:10237000B6019F77DF91CF91FF90EF90DF90CF90E4
:10238000BF90AF909F908F9008958F929F92AF9241
:10239000BF92CF92DF92EF92FF92609119017091FC
:1023A0001A0180911B0190911C0161157105810535
:1023B000910521F464E279ED8BE597E02DE133EFAF
:1023C00041E050E00E941D1249015A019B01AC01FD
:1023D000A7EAB1E40E943C126B017C01ACEEB4EFC1
:1023E000A50194010E944A12C60ED71EE81EF91ECE
:1023F000F7FE06C081E0C81AD108E10880E8F80AB3
:10240000C0921901D0921A01E0921B01F0921C01B6
:10241000C701B6019F77FF90EF90DF90CF90BF90FC
:10242000AF909F908F9008956093190170931A0157
:1024300080931B0190931C010895052E97FB1EF4B9
:1024400000940E94341257FD07D00E944F1207FCDF
:1024500003D04EF40C94341250954095309521954C
:102460003F4F4F4F5F4F08959095809570956195C0
:102470007F4F8F4F9F4F08950E947112A59F900D1F
:10248000B49F900DA49F800D911D11240895B7FF56
:102490000C943C120E943C12821B930B0895A1E203
:1024A0001A2EAA1BBB1BFD010DC0AA1FBB1FEE1FCE
:1024B000FF1FA217B307E407F50720F0A21BB30B19
:1024C000E40BF50B661F771F881F991F1A9469F795
:1024D00060957095809590959B01AC01BD01CF01F1
:1024E0000895A29FB001B39FC001A39F700D811DED
:1024F0001124911DB29F700D811D1124911D08950D
:10250000EE0FFF1F0590F491E02D099481E090E01B
:0A251000F8940C948B12F894FFCF9E
:10251A000102010201020102010201020102010299
:10252A0001020102FFFF0000010100000001010396
:10253A000407000302020007010406020306000260
:10254A00030100030600070002020200070002025C
:10255A0002010301020700020302000702410135DA
:10256A000129011D010000000033049303C0038008
:10257A0004F103CF03E30300000000340C070C8AC4
:10258A000CCF0A000CED0BDE0B0000000052089382
:10259A00038A0CAC0B7205CF0AF80AD00AEC0AE0DF
:1025AA000AFF0ACF0A18061706960A5D0A180AFBD6
:1025BA000983092409387838204C4544204D617430
:0C25CA007269782054657374000D0A00DB
:00000001FF
