:100000000C94E2020C940A030C940A030C940A0365
:100010000C940A030C940A030C940A030C940A032C
:100020000C940A030C940A030C940A030C940A031C
:100030000C940A030C940A030C940A030C940A030C
:100040000C94740C0C940A030C94420C0C941C0C2D
:100050000C940A030C940A030C940A030C940A03EC
:100060000C94BE0C0C940A0300000000003E5B4F91
:100070005B3E3E6B4F6B3E1C3E7C3E1C183C7E3C08
:10008000181C577D571C1C5E7F5E1C00183C180016
:10009000FFE7C3E7FF0018241800FFE7DBE7FF30A6
:1000A000483A060E2629792926407F050507407F14
:1000B00005253F5A3CE73C5A7F3E1C1C08081C1C87
:1000C0003E7F14227F22145F5F005F5F06097F017D
:1000D0007F006689956A606060606094A2FFA29468
:1000E00008047E040810207E201008082A1C080836
:1000F0001C2A08081E101010100C1E0C1E0C303884
:100100003E3830060E3E0E06000000000000005F84
:1001100000000007000700147F147F14242A7F2AA0
:100120001223130864623649562050000807030062
:10013000001C2241000041221C002A1C7F1C2A08AE
:10014000083E080800807030000808080808000011
:1001500060600020100804023E5149453E00427F85
:10016000400072494949462141494D331814127FD4
:100170001027454545393C4A494931412111090774
:100180003649494936464949291E000014000000F5
:1001900040340000000814224114141414140041C7
:1001A00022140802015909063E415D594E7C121184
:1001B000127C7F494949363E414141227F414141BC
:1001C0003E7F494949417F090909013E4141517337
:1001D0007F0808087F00417F41002040413F017FA8
:1001E000081422417F404040407F021C027F7F0470
:1001F00008107F3E4141413E7F090909063E4151B9
:10020000215E7F09192946264949493203017F01A8
:10021000033F4040403F1F2040201F3F4038403FA9
:10022000631408146303047804036159494D4300BF
:100230007F4141410204081020004141417F0402F6
:10024000010204404040404000030708002054548D
:1002500078407F284444383844444428384444286B
:100260007F385454541800087E090218A4A49C78BE
:100270007F0804047800447D40002040403D007F1A
:100280001028440000417F40007C047804787C08FA
:100290000404783844444438FC18242418182424CE
:1002A00018FC7C08040408485454542404043F44B3
:1002B000243C4040207C1C2040201C3C4030403CE2
:1002C00044281028444C9090907C4464544C440042
:1002D00008364100000077000000413608000201A6
:1002E0000204023C2623263C1EA1A161123A404092
:1002F000207A38545455592155557941225454780F
:1003000042215554784020545579400C1E527212A7
:100310003955555559395454545939555454580030
:1003200000457C410002457D420001457C407D1234
:1003300011127DF0282528F07C5455450020545496
:100340007C547C0A097F4932494949323A44444441
:100350003A324A4848303A4141217A3A424020787C
:10036000009DA0A07D3D4242423D3D4040403D3C7D
:1003700024FF2424487E4943662B2FFC2F2BFF09A2
:1003800029F620C0887E0903205454794100004496
:100390007D413048484A32384040227A007A0A0A81
:1003A000727D0D19317D2629292F282629292926F4
:1003B00030484D4020380808080808080808382F39
:1003C00010C8ACBA2F102834FA00007B00000814C3
:1003D0002A142222142A14085500550055AA55AA99
:1003E00055AAFF55FF55FF000000FF00101010FF39
:1003F00000141414FF001010FF00FF1010F010F094
:10040000141414FC001414F700FF0000FF00FF1484
:1004100014F404FC141417101F10101F101F1414D0
:10042000141F00101010F0000000001F101010101A
:100430001F10101010F010000000FF10101010100E
:1004400010101010FF10000000FF140000FF00FF4C
:1004500000001F10170000FC04F4141417101714E8
:1004600014F404F40000FF00F7141414141414140A
:10047000F700F7141414171410101F101F1414147D
:10048000F4141010F010F000001F101F0000001FE7
:1004900014000000FC140000F010F01010FF10FF1A
:1004A000141414FF141010101F00000000F010FFAF
:1004B000FFFFFFFFF0F0F0F0F0FFFFFF0000000093
:1004C00000FFFF0F0F0F0F0F3844443844FC4A4A17
:1004D0004A347E02020606027E027E0263554941CC
:1004E000633844443C04407E201E2006027E020203
:1004F00099A5E7A5991C2A492A1C4C7201724C3017
:100500004A4D4D303048784830BC625A463D3E49ED
:100510004949007E0101017E2A2A2A2A2A44445F91
:10052000444440514A444040444A51400000FF0185
:1005300003E080FF000008086B6B08361236243693
:10054000060F090F060000181800000010100030F8
:1005500040FF0101001F01011E00191D1712003C80
:100560003C3C3C000000000000000000230026008E
:10057000290000000000240027002A0000000000DD
:10058000250028002B0004040404040404040202CF
:100590000202020203030303030301020408102002
:1005A000408001020408102001020408102000000D
:1005B0000008000201000003040700000000000022
:1005C0000000D60D11241FBECFEFD8E0DEBFCDBF97
:1005D00011E0A0E0B1E0ECE3F0E202C005900D9282
:1005E000A038B107D9F722E0A0E8B1E001C01D9220
:1005F000A53FB207E1F712E0C2EED2E004C02197B6
:10060000FE010E941110C13ED107C9F70E94330EAE
:100610000C941C100C94000020911F0281E02132E8
:1006200008F040C08091FB018111FCCF80911E0237
:1006300092E09093FB0191E09093FA019FEF9093E9
:10064000F9011092F8012093F701AEEFB1E0E7ED68
:10065000F1E090E029132DC01092D6019091D601BF
:10066000880F892B8093D6018091D501813029F59F
:100670001092D5018091D6018093BB0085EC8093C8
:10068000BC008091FB018230E1F38091F9018F3F42
:10069000B1F08091F9018032A1F08091F9018033AD
:1006A00091F084E01092FD0110921F021092FC0163
:1006B00008953D9131939F5FCDCF85EEE0CF80E0EF
:1006C000F1CF82E0EFCF83E0EDCFCF93DF9390E0E7
:1006D000FC01E656FA4F24918A579A4FFC01849107
:1006E0008823C1F090E0880F991FFC01EE58FA4F63
:1006F000C591D491FC01E458FA4FA591B4919FB7EC
:10070000F8943881822F809583238883EC91E22BA3
:10071000EC939FBFDF91CF910895AF92BF92CF929C
:10072000DF92EF92FF920F931F93CF93DF936C01B1
:100730007B018B01040F151FEB015E01AE18BF0892
:10074000C017D10759F06991D601ED91FC91019044
:10075000F081E02DC6010995892B79F7C501DF915C
:10076000CF911F910F91FF90EF90DF90CF90BF90AE
:10077000AF900895FC01538D448D252F30E0842FD8
:1007800090E0821B930B541710F0CF9608950197B9
:100790000895FC01918D828D981761F0A28DAE0FA6
:1007A000BF2FB11D5D968C91928D9F5F9F73928F2D
:1007B00090E008958FEF9FEF0895FC01918D828D59
:1007C000981731F0828DE80FF11D858D90E0089526
:1007D0008FEF9FEF0895FC01918D228D892F90E07E
:1007E000805C9F4F821B91098F739927089580E247
:1007F00092E00E94EB0321E0892B09F420E0822F94
:10080000089580E090E0892B29F00E94F703811180
:100810000C9400000895FC01A48DA80FB92FB11D00
:10082000A35ABF4F2C91848D90E001968F73992726
:10083000848FA689B7892C93A089B1898C91837004
:1008400080648C93938D848D981306C00288F389FD
:10085000E02D80818F7D80830895EF92FF920F932A
:100860001F93CF93DF93EC0181E0888F9B8D8C8D5C
:1008700098131AC0E889F989808185FF15C09FB750
:10088000F894EE89FF896083E889F9898081837013
:10089000806480839FBF81E090E0DF91CF911F91C2
:1008A0000F91FF90EF900895F62E0B8D10E00F5FE3
:1008B0001F4F0F731127E02E8C8D8E110CC00FB6B9
:1008C00007FCFACFE889F989808185FFF5CFCE0151
:1008D0000E940B04F1CFEB8DEC0FFD2FF11DE35ABD
:1008E000FF4FF0829FB7F8940B8FEA89FB898081D4
:1008F0008062CFCFCF93DF93EC01888D8823B9F04E
:10090000AA89BB89E889F9898C9185FD03C080811A
:1009100086FD0DC00FB607FCF7CF8C9185FFF2CF97
:10092000808185FFEDCFCE010E940B04E9CFDF91DE
:10093000CF910895833081F028F4813099F082308E
:10094000A9F008958730A9F08830C9F08430B1F457
:10095000809180008F7D03C0809180008F7780938D
:100960008000089584B58F7784BD089584B58F7D08
:10097000FBCF8091B0008F778093B0000895809175
:10098000B0008F7DF9CFCF93DF93282F30E0F901AE
:10099000E255FA4F8491F901E656FA4FD491F901E4
:1009A000EA57FA4FC491CC2389F081110E949A042E
:1009B000EC2FF0E0EE0FFF1FE458FA4FA591B49131
:1009C0008FB7F894EC91DE2BDC938FBFDF91CF9142
:1009D0000895CF93DF93282F30E0F901E255FA4FC5
:1009E0008491F901E656FA4FD491F901EA57FA4F8A
:1009F000C491CC23A1F081110E949A04EC2FF0E065
:100A0000EE0FFF1FE859FA4FA591B491EC91ED2339
:100A100081E090E009F480E0DF91CF91089580E0DB
:100A200090E0FACFFC014830510508F082C06830F0
:100A3000710508F07EC08689823051F1833099F1CA
:100A4000813031F487E090E0841B950BAB01BC0151
:100A50002330310579F5440F551FE40FF51F81E070
:100A600090E09C01062E02C0220F331F0A94E2F789
:100A7000438D548D242B352B685F7F4F02C0880F28
:100A8000991F6A95E2F780959095822393234FC032
:100A900087E090E0DC01A61BB70BBD01DC01A41BC5
:100AA000B50BAD01D5CF87E090E0861B970BBA015F
:100AB000AC01CECF21303105E9F4440F551FE40FCE
:100AC000F51FCB010896A90102C0440F551F8A9556
:100AD000E2F7CA01438D548D842B952B02C0220F5F
:100AE000331F6A95E2F72095309528233923348FF8
:100AF000238F089522303105E9F4440F551FE40F88
:100B0000F51FCB01089621E030E0D90102C0AA0F01
:100B1000BB1F8A95E2F7CD0102C0220F331F6A95F1
:100B2000E2F7822B932B238D348D822B932B948F82
:100B3000838F0895232BE9F7440F551FE40FF51F0A
:100B4000CB01089621E030E0A90102C0440F551FF7
:100B50008A95E2F7CA0102C0220F331F6A95E2F7B5
:100B6000822B932B80959095238D348D8ECF089575
:100B7000FC016370668B84819581268137816130A9
:100B800039F0633029F09187808733872287089571
:100B9000318720879387828708952F923F924F92C3
:100BA0005F926F927F928F929F92AF92BF92CF92FD
:100BB000DF92EF92FF920F931F93CF93DF93CDB706
:100BC000DEB76A970FB6F894DEBF0FBECDBF9A8F1F
:100BD000898F7A8369834A01D22E18870F83370160
:100BE000BC2CDC0159962D913C915A972115310569
:100BF00009F015C118968D919C911997681779077E
:100C00000CF0D7C11A968D919C91481759070CF09A
:100C1000D0C14C2C512CB6E0CB9E600D711D11241F
:100C20007C876B87161617060CF0C3C1EA2DF0E01F
:100C3000FA87E98793E0EE0FFF1F9A95E1F7F88BAB
:100C4000EF87CF01840F951F181619060CF0B1C15C
:100C5000A98DBA8D58968C91811104C0BFEABD153B
:100C600008F4D394A98DBA8DED91FC91119702846B
:100C7000F385E02DCD010995B5E0DB9EC00111247F
:100C8000E981FA81FC83EB83312C212C9C012859CA
:100C90003F4F388F2F8B4A2D50E05E8B4D8BEF8965
:100CA000F88DE20DF31D44919E828D82D12CC12CD2
:100CB00069817A81620D731D7A8B698B842F90E034
:100CC0009C8B8B8BE98DFA8DA081B18140FF82C016
:100CD000F1E0BF126FC0AF126DC01C96ED91FC9198
:100CE0002F813885A4014C0D5D1D69897A89898D14
:100CF0009A8D0995EB89FC89F595E7954E2F5FEF65
:100D0000C51AD50A6D817E818D899E89680F791FEC
:100D10007E836D8398E0C916D10481F6AFEF2A1A5D
:100D20003A0AEB81FC81E40DF51DFC83EB83F5E0D1
:100D30002F16310409F0B3CF2F81388526153705DA
:100D4000B9F0A98DBA8DED91FC91B1E0BB1257C0FD
:100D5000AB1255C069817A816B5F7F4F0088F18942
:100D6000E02D830128E030E0A401898D9A8D09955A
:100D7000A98DBA8DED91FC9111970688F789E02D28
:100D8000CD016A960FB6F894DEBF0FBECDBFDF91DE
:100D9000CF911F910F91FF90EF90DF90CF90BF9078
:100DA000AF909F908F907F906F905F904F903F900B
:100DB0002F9009941E96ED91FC91EF80F88409859F
:100DC0001A8592014D815E816B817C81898D9A8D1E
:100DD000099590CF2F8138852615370509F48ACFDC
:100DE00031E0B31207C0A31205C01C96ED91FC912F
:100DF000930178CF1E96ED91FC917301E0CF6B8546
:100E00007C85641975090684F785E02D73010F85CB
:100E100018899201A401898D9A8D0995A9CFF901AC
:100E200034969491329745915491D91AB7E0DB9E4C
:100E3000400D511D1124F901259134913C8B2B8BD0
:100E4000FA0125903490FA013296749031963491DB
:100E5000398B329664903196449041E04C1518F0ED
:100E60004A1508F07FC0662D062C000C770B7C839A
:100E70006B83842D042C000C990B9E838D83A98D8C
:100E8000BA8DED91FC9111970284F385E02DCD018F
:100E90000995512CD12CC12CEA2DF0E0FA87E98775
:100EA0002B2D30E03C872B87A401440D511D47FCBE
:100EB0005A95588F4F8B69817A81660D711D67FC39
:100EC0007A957E876D877989C71608F051CF2C2DCA
:100ED00030E04D815E81420F531FA985BA854A9F3C
:100EE000C0014B9F900D5A9F900D1124FC01E80DFD
:100EF000F91DF88BEF87852D612C4F89588D420F96
:100F0000531F5E8B4D8B671408F050C044244394EC
:100F1000480E877041F4C1010196EB89FC89E20D0E
:100F2000F31DD4901C01D7FE19C0A98DBA8DED9187
:100F3000FC91662D70E0B1E0BB1219C0AB1217C076
:100F40002D853E85620F731F0484F585E02D2F816A
:100F500038854D895E89898D9A8D0995DD0C63945C
:100F6000842DD1CF1E821D821C821B8288CF4B8193
:100F70005C81640F751FAB85BC856A9FC0016B9F48
:100F8000900D7A9F900D112469817A81680F791FE5
:100F90000684F785E02DEF80F88409851A859D0188
:100FA0004F855889898D9A8D0995D8CF570CC39450
:100FB0008ACF6A960FB6F894DEBF0FBECDBFDF9121
:100FC000CF911F910F91FF90EF90DF90CF90BF9046
:100FD000AF909F908F907F906F905F904F903F90D9
:100FE0002F9008958F929F92AF92CF92EF92FF929F
:100FF0000F931F93CF93DF93EC01262F898D9A8D4A
:10100000009709F051C06A30D1F41D861C868D8985
:1010100048E0849F900111248E859F85820F931F45
:101020009F878E8781E090E0DF91CF911F910F9194
:10103000FF90EF90CF90AF909F908F9008956D307C
:1010400089F3CC88AD888F898823C1F08C859D85F4
:1010500036E0C39E800D911D11244885598548179F
:10106000590764F44E855F851D861C8638E0A39E73
:10107000C0011124840F951F9F878E87EA88FB8803
:10108000088919894E855F856C857D85CE010E9412
:10109000CD052C898C859D8546E0249F800D911D72
:1010A00011249D878C87BECF6A3069F41D861C860B
:1010B000FC013696E4912D898E859F85E29F800DF7
:1010C000911D1124ADCF6D3009F4ACCFFC013496E5
:1010D0003491631708F4A6CF3196E491E61708F42B
:1010E000A1CFFC01329685909490462F431B342F5C
:1010F00047E0349F800C911C1124F4013296349106
:101100003196E4913323A9F1EE2399F1CC88F401CF
:101110003596E491AD884F89442301F10E2E000CE1
:10112000FF0BE30FF11DCE9EA001CF9E500D1124A9
:101130006C857D85460F571F68857985641775070F
:101140006CF44E855F851D861C86FC013696E49105
:10115000AE9E400D511D11245F874E87EA88FB88A3
:10116000088919894E855F856C857D85CE010E9431
:10117000CD05F4013496E4912C898C859D85E29F00
:10118000800D911D11248DCF6F927F928F929F922F
:10119000AF92BF92CF92DF92EF92FF920F931F9385
:1011A000CF93DF93EC016B015A0139014801E881CB
:1011B000F9810284F385E02D0995E881F98102889F
:1011C000F389E02D87019301A501B601CE010995B0
:1011D000A501480D591D41505109E881F981028846
:1011E000F389E02D9301B601CE010995E881F981DB
:1011F0000088F189E02D9401A501B601CE01099581
:10120000C60CD71CB60161507109E881F9810088CC
:10121000F189E02D9401A501CE010995E881F981BC
:101220000688F789E02DCE01DF91CF911F910F91B4
:10123000FF90EF90DF90CF90BF90AF909F908F90F6
:101240007F906F9009946F927F928F929F92AF924E
:10125000BF92CF92DF92EF92FF920F931F93CF93A3
:10126000DF935C01EB016A01490138018701DC0170
:10127000ED91FC916217730719F5641675062CF051
:10128000962D872D3A01C92ED82E96012619370999
:101290002F5F3F4F048CF58DE02DA301BE01C501EA
:1012A0000995DF91CF911F910F91FF90EF90DF9003
:1012B000CF90BF90AF909F908F907F906F90089548
:1012C0004615570591F42617370724F0892D4B0151
:1012D000C22FD82F9E01281939092F5F3F4F068C46
:1012E000F78DE02DA601B401DACF0284F385E02D5D
:1012F0000995D501ED91FC910488F589E02D8301D4
:101300009401A601BE01C5010995D501ED91FC919D
:101310000688F789E02DC501DF91CF911F910F91CC
:10132000FF90EF90DF90CF90BF90AF909F908F9005
:101330007F906F900994EF92FF920F931F93DC01BF
:101340001A960D911C911B9718962D913C91199707
:10135000ED91FC9100A0F1A1E02D7B0150E040E077
:1013600070E060E009951F910F91FF90EF90089554
:101370004F925F926F927F928F929F92AF92BF92A5
:10138000CF92DF92EF92FF920F931F93CF93DF9351
:101390006C012B015A0139014801DC01ED91FC91EE
:1013A0000284F385E02D0995E201640C751CD601D9
:1013B000ED91FC91C615D7055CF40088F189E02D0C
:1013C00087019401A501BE01C60109952196EFCFC1
:1013D0000688F789E02DC601DF91CF911F910F910B
:1013E000FF90EF90DF90CF90BF90AF909F908F9045
:1013F0007F906F905F904F9009948F929F92AF92E1
:10140000BF92CF92DF92EF92FF920F931F93CF93F1
:10141000DF93EC015B014A016901E881F9810284F3
:10142000F385E02D099595012C0D3D1D21503109C5
:10143000E881F9810488F589E02D78018401A4010F
:10144000B501CE010995E881F9810688F789E02D7B
:10145000CE01DF91CF911F910F91FF90EF90DF9020
:10146000CF90BF90AF909F908F9009948F929F9252
:10147000AF92BF92CF92DF92EF92FF920F931F93A2
:10148000CF93DF93EC015B014A0169017801E881A8
:10149000F9810284F385E02D0995C80CD91C8601D9
:1014A00001501109E881F9810488F589E02D950141
:1014B000A401B501CE010995E881F9810688F78973
:1014C000E02DCE01DF91CF911F910F91FF90EF9012
:1014D000DF90CF90BF90AF909F908F900994089528
:1014E000EF92FF920F931F93DC01ED91FC9100A00E
:1014F000F1A1E02D09951F910F91FF90EF900895B4
:101500000F931F93DC01ED91FC91068CF78DE02D7C
:1015100009951F910F9108950F931F93DC01ED9191
:10152000FC91048CF58DE02D09951F910F91089584
:10153000DC01ED91FC910084F185E02D09942F925E
:101540003F924F925F926F927F928F929F92AF9253
:10155000BF92CF92DF92EF92FF920F931F93CF93A0
:10156000DF9300D000D000D0CDB7DEB73C016A01D8
:101570003E832D83FC82EB825801A41AB50AB7FE84
:1015800003C0B194A194B1088D809E80861A970AF9
:1015900097FE03C09194819491088A149B045CF097
:1015A000902F812F0D811E819D838E839C2D8D2DEB
:1015B0006B01692F782F0C151D055CF09D818E81C4
:1015C0007E836D83692F782F902F812F8601C92EFE
:1015D000D82E1601201A310A2B012D813E81421A84
:1015E000530A57FE03C0519441945108710137FECC
:1015F00003C03FEFE31AF30AF594E7948D819E81CF
:10160000861797075CF5A1E0B0E0BA83A983C016FE
:10161000D1064CF1D301ED91FC910484F585E02DC8
:101620002B813C81A8016D817E818A149B041CF072
:101630004D815E81B801C3010995E418F508F7FEF4
:101640000AC02D813E8189819A81280F391F3E83EE
:101650002D83E20CF31C0F5F1F4FD9CF2FEF3FEF0D
:101660003A832983D4CF26960FB6F894DEBF0FBEF7
:10167000CDBFDF91CF911F910F91FF90EF90DF9041
:10168000CF90BF90AF909F908F907F906F905F9022
:101690004F903F902F900895089585ED8093BC0062
:1016A0008091BC0084FDFCCF1092FB010895613253
:1016B00098F42091FB01243089F46093A001282F35
:1016C000A0E8B1E0FC018E2F821B861710F080E0AD
:1016D000089581918D93F7CF81E0089582E0089578
:1016E00081E090E03091C9012091C801321710F4D7
:1016F00090E080E091958195910908958091C901CC
:101700009091C801891730F48F5F8093C90190E0F0
:1017100080E008958FEF9FEF08958091C801909128
:10172000C901891B990B0895CF92DF92EF92FF9226
:101730000F931F93CF93DF937C01CB018A012091FC
:10174000FC01222389F0EB016B01C40ED51ECC15E0
:10175000DD0569F06991D701ED91FC910190F0816F
:10176000E02DC7010995F3CF642F0E94570BC801E4
:10177000DF91CF911F910F91FF90EF90DF90CF906D
:101780000895CF93DF931F92CDB7DEB76983209181
:10179000FC012223F9F020911F02203258F021E0B1
:1017A00030E0FC013383228390E080E00F90DF91F2
:1017B000CF9108958091FD01E82FF0E0E250FE4FB7
:1017C000998190838F5F8093FD0180931F0281E058
:1017D00090E0ECCF61E0CE0101960E94570BF7CF6D
:1017E000CF93DF938091F40291E09093FC0180937A
:1017F0001E021092FD0110921F0260E08DEB92E03C
:101800000E94C10BC9ECD2E06B8D8DEB92E00E947F
:10181000C10B6C8D8DEB92E00E94C10B229682E091
:10182000C93DD80789F7DF91CF910C940C0390E064
:1018300080E008950E9417101F920F920FB60F922A
:1018400011242F933F934F935F936F937F938F93C5
:101850009F93AF93BF93EF93FF9380E292E00E9438
:101860000B04FF91EF91BF91AF919F918F917F9169
:101870006F915F914F913F912F910F900FBE0F90FD
:101880001F9018951F920F920FB60F9211242F934D
:101890008F939F93EF93FF93E0913002F091310289
:1018A0008081E0913602F091370282FD1BC0908169
:1018B000809139028F5F8F7320913A02821741F035
:1018C000E0913902F0E0E05EFD4F958F80933902A0
:1018D000FF91EF919F918F912F910F900FBE0F90DD
:1018E0001F9018958081F4CF1F920F920FB60F9220
:1018F00011242F933F938F939F93AF93BF93809126
:10190000CA019091CB01A091CC01B091CD01309151
:10191000C70123E0230F2D3758F50196A11DB11DF6
:101920002093C7018093CA019093CB01A093CC016F
:10193000B093CD018091C3019091C401A091C501E4
:10194000B091C6010196A11DB11D8093C301909372
:10195000C401A093C501B093C601BF91AF919F91FF
:101960008F913F912F910F900FBE0F901F90189560
:1019700026E8230F0296A11DB11DD2CF1F920F9210
:101980000FB60F9211242F933F934F935F936F9352
:101990007F938F939F93AF93BF93EF93FF93809128
:1019A000B900887F803609F44AC0F0F5883209F41E
:1019B000A5C018F5803109F499C0B8F4882309F45A
:1019C000F2C0883009F492C0FF91EF91BF91AF91BE
:1019D0009F918F917F916F915F914F913F912F9147
:1019E0000F900FBE0F901F901895883109F486C094
:1019F000803251F78093F90114C0803409F49BC000
:101A000040F48033B9F38833F9F68093F90185EC1B
:101A1000AEC0803509F483C0883509F494C0883499
:101A200099F60E944D0BD0CF883909F48AC038F559
:101A3000883729F050F4883611F0803729F683E092
:101A40008093FB011092C20155C0883809F479C017
:101A5000803919F0803809F0B7CF8091C201803207
:101A600008F06FC0E091C20181E08E0F8093C20147
:101A70008091BB00F0E0EE55FE4F80833BC0803B81
:101A800039F0D0F4803A09F477C0883A09F09CCF55
:101A900084E08093FB011092A1011092A001F0E07C
:101AA000E0E009958091A00181110FC081E0809351
:101AB000A0011092800109C0803C09F4A8CF883CA5
:101AC00009F4A5CF883B09F07FCFE091A10181E027
:101AD0008E0F8093A101F0E0E058FE4F808180934B
:101AE000BB009091A1018091A00129C08091D601F5
:101AF0008093BB0085EC8093BC0066CF9091F80189
:101B00008091F701981758F5E091F80181E08E0F68
:101B10008093F801F0E0E952FE4F8081E9CFE09137
:101B2000F80181E08E0F8093F8018091BB00F0E016
:101B3000E952FE4F80839091F8018091F701981748
:101B4000C8F285E8D8CFE091F80181E08E0F80934C
:101B5000F8018091BB00F0E0E952FE4F8083809154
:101B6000FA0181115ECF81E08093D50184EA8093F0
:101B7000BC001092FB0128CF8091C201803230F46A
:101B8000E091C201F0E0EE55FE4F10820E944D0B35
:101B90006091C20170E082EA91E0F0E0E0E0099536
:101BA0001092C20134CF1092F9013BCFE0E2F2E093
:101BB0001382128288EE93E0A0E0B0E084839583E4
:101BC000A683B7832DE131E03183208325EC30E01B
:101BD0003587248724EC30E03787268720EC30E0F7
:101BE000318B208B21EC30E0338B228B22EC30E0E8
:101BF000358B248B26EC30E0378B268B118E128EA2
:101C0000138E148EEDEBF2E013821282848395839F
:101C1000A683B7838FE291E091838083E9ECF2E0C1
:101C20001382128288E090E0958384839783868371
:101C30009187808793878287168A158614861786F0
:101C4000168681E0858B848B2FEF3FEF338B228BC1
:101C5000318B208B878B108E128E118E81E491E058
:101C6000918380830895789484B5826084BD84B51F
:101C7000816084BD85B5826085BD85B5816085BD87
:101C800080916E00816080936E001092810080913F
:101C900081008260809381008091810081608093C7
:101CA0008100809180008160809380008091B100EC
:101CB00084608093B1008091B00081608093B00017
:101CC00080917A00846080937A0080917A008260AB
:101CD00080937A0080917A00816080937A0080916D
:101CE0007A00806880937A001092C100E0913002FF
:101CF000F091310282E08083E0912C02F0912D027C
:101D00001082E0912E02F0912F028FEC80831092CE
:101D10003802E0913402F091350286E08083E09150
:101D20003202F0913302808180618083E09132023F
:101D3000F0913302808188608083E0913202F091DB
:101D40003302808180688083E0913202F091330217
:101D500080818F7D808343E150E069E671E080E21D
:101D600092E00E948D0342E050E06DE771E080E276
:101D700092E00E948D0386E00E94650387E00E9446
:101D8000650388E00E94650380E78093F402109267
:101D9000C9011092C8011092FD0110921F02109209
:101DA000FB01C1E0C093FA011092D50182E10E94CB
:101DB000C30483E10E94C3048091B9008E7F8093A5
:101DC000B9008091B9008D7F8093B90088E4809339
:101DD000B80085E48093BC008091F402C093FC01BC
:101DE00080931E021092FD0110921F0261E28DEBA2
:101DF00092E00E94C10B0E940C038091F402C093F8
:101E0000FC0180931E021092FD0110921F0261E8F6
:101E10008DEB92E00E94C10B0E940C038091F402B2
:101E2000C093FC0180931E021092FD0110921F02CC
:101E30006FEE8DEB92E00E94C10B0E940C030E949A
:101E4000F00B90E0692E90E0792E442443942FB754
:101E5000F8948091CA019091CB01A091CC01B091EE
:101E6000CD012FBF4091D1015091D2016091D3019A
:101E70007091D4018C019D01041B150B260B370BAF
:101E8000B901A801483E53406105710508F4ACC092
:101E90008093D1019093D201A093D301B093D40148
:101EA00086E00E94E904892B41F480910C0187307F
:101EB00008F0A6C08F5F80930C0187E00E94E904C0
:101EC000892B39F480910C01882319F0815080937B
:101ED0000C0188E00E94E904892B41F48091D00133
:101EE0008D5F8C3008F08EC08093D0015090CF0170
:101EF000A0900C01052D10E000501F4FC091D001A3
:101F0000D0E0C35FDE4F7E01F80130E020E0619158
:101F1000D7018D917D01082E000C990B0A2C02C06F
:101F2000880F991F0A94E2F7AF0141505109682BBD
:101F3000DA016C93408150E084239523892B09F4C6
:101F400064C04092CE0180E0882E81E0982ED12C92
:101F5000C12CF12CE12CF401828190E00E2C02C006
:101F6000959587950A94E2F723E030E080FD02C062
:101F700030E020E0A701B60189EC92E00E94120552
:101F8000FFEFEF1AFF0A29E0E216F10421F73FEF15
:101F9000C31AD30A8FEF881A980AA9E0CA16D10487
:101FA000C1F6B7E0B515C0F18091CE01811134C002
:101FB00030E020E0F80141918F0189913197082E9E
:101FC000000C990B0A2C01C0880F0A94EAF780953F
:101FD000842380832F5F3F4F2330310559F753947B
:101FE0005092CF010E94F00B6114710409F42FCFBD
:101FF0000E94F703882309F42ACF0E94000027CF0C
:1020000087E059CF1092D00171CF2F5F3F4F23301F
:10201000310509F07CCF97CF1092CF011092CE01FD
:10202000E1CFEE0FFF1F0590F491E02D099481E0C0
:0C20300090E0F8940C941C10F894FFCF82
:10203C00000000000000000000FF0000020103018E
:10204C00020700020302000702000000002D048DAD
:10205C0003BA037A04EB03C903DD0300000000C1DB
:10206C000B940B170C6F0A8D0B7E0B700B00000082
:10207C0000F2078D03170C4C0B12056F0A980A70AF
:10208C000A8C0A800A9F0A6F0AB805B705360AFD42
:10209C0009B8099B092309C408387838204C4544F1
:1020AC00204D61747269782054657374000D0A00B8
:00000001FF
